:100000000EC026C025C024C023C022C021C020C0ED
:100010001FC01EC01EC01CC01BC01AC019C01124A6
:100020001FBECFEDCDBF10E0A0E6B0E0E8E8F1E004
:1000300002C005900D92A236B107D9F710E0A2E6F2
:10004000B0E001C01D92A536B107E1F789D09AC092
:10005000D7CF1F920F920FB60F9211242F938F9329
:100060009F9380916200909163000196909363004A
:10007000809362008091620090916300889711F4F0
:10008000C19844C08091620090916300843B9105C7
:1000900011F4C29A3BC08091620090916300883C49
:1000A000910511F4C19A32C0809162009091630071
:1000B000823D910581F08091620090916300803FC4
:1000C000910511F4C09822C0809162009091630064
:1000D0008C3F910531F41092600084EA80936400B3
:1000E00015C080916200909163008C57914011F48B
:1000F000C2980CC080916200909163008059914039
:1001000029F4C09A109263001092620080916000FE
:100110008F3FF1F08091600080FF02C0C39A0DC054
:10012000C3988091640087FF02C0C49A01C0C4983C
:1001300080916400880F809364008091600080311A
:1001400011F48FEF03C0809160008F5F8093600097
:100150009F918F912F910F900FBE0F901F90189528
:1001600084B7877F84BF88E181BD11BC8FE187BBE5
:1001700018BA81E389BD82E08ABD83BF80E189BF6F
:080180007894FFCFF894FFCF43
:02018800FF0076
:00000001FF
