:100000000EC026C025C024C023C022C021C020C0ED
:100010001FC01EC01EC01CC01BC01AC019C01124A6
:100020001FBECFEDCDBF10E0A0E6B0E0EEE9F1E0FD
:1000300002C005900D92A836B107D9F710E0A8E6E6
:10004000B0E001C01D92AC36B107E1F78FD0A5C07A
:10005000D7CF1F920F920FB60F9211242F938F9329
:100060009F93EF93FF9380916A0090916B000196AC
:1000700090936B0080936A0080916A0090916B006E
:10008000889711F4C19830C080916A0090916B00FC
:10009000843B910511F4C29A27C080916A00909127
:1000A0006B00883C910511F4C19A1EC080916A00D2
:1000B00090916B00803F910511F4C09815C080911C
:1000C0006A0090916B008C57914011F4C2980CC05B
:1000D00080916A0090916B008059914029F4C09AF8
:1000E00010926B0010926A0080916A0090916B00F0
:1000F000823D910519F481E08093680080916A0047
:1001000090916B008C3F910519F481E08093680019
:1001100080916800882301F18091690080FF02C00E
:10012000C39A0DC0C398E0916900E695F0E0E05AEB
:10013000FF4F8081882311F0C49A01C0C498809138
:1001400069008F5F8093690080916900803121F49C
:100150001092680010926900FF91EF919F918F912A
:100160002F910F900FBE0F901F90189584B7877F27
:1001700084BF88E181BD11BC8FE187BB18BA1092A2
:100180006B0010926A0082E08ABD81E083BF81E348
:0E01900089BD80E189BF7894FFCFF894FFCF3E
:08019E00010001000001000056
:00000001FF
