:10000000B8C0CAC0C9C0C8C0C7C0C6C0C5C0C4C0C7
:10001000C3C0C2C0C1C0C0C0BFC0BEC0BDC0BCC0E4
:10002000BBC0BAC0B9C05669727475616C74617036
:10003000207465737465722076302E3100436F6EC4
:100040006E6563742050434220616E642070726557
:10005000737320616E79206B657900202020202049
:100060002020202037363534333231302046454485
:100070004342413938205332484C414243560050A4
:10008000415353004641494C00457870656374659F
:100090006420002020202020476F742000436F6ED2
:1000A0006E6563746976697479206C6F6F70206314
:1000B0006865636B00416C6C206F6E65733A20005D
:1000C000416C6C207A65726F733A2000416C742E1B
:1000D00020313A2000416C742E20323A2000436FC8
:1000E000756E7465723A200050696374757265208C
:1000F000636865636B00436865636B6572626F611B
:100100007264203100436865636B6572626F61726F
:10011000642032004441437320636865636B00438D
:100120006865636B7320636F6D706C6574656420C4
:1001300021007F09090919294600030408700804F1
:1001400003001C224141515172001C224141414196
:1001500022007F494949494936007F0204080402C8
:100160007F000F30403040300F004141417F41411E
:10017000410011241FBECFE5D4E0DEBFCDBF10E0AB
:10018000A0E6B0E0E6E8F7E002C005900D92A836E0
:10019000B107D9F702D0F5C233CF2F923F924F92D9
:1001A0005F926F927F928F929F92BF92CF92DF92D7
:1001B000EF92FF920F931F93CF93DF9398E191BD3E
:1001C00011BC17BA8FE384BB8EE381BB18BA80E3FE
:1001D00085BB8CE082BB10BC89E189B9599886E85F
:1001E00080BD9AB986E290E061E0CED160EA262E29
:1001F0006FE0362E50E9652E51E0752E43E0442E17
:10020000512C8DE390E061E0BFD1B1D18DE990E058
:1002100061E0BAD185EB90E060E0B6D18FEF61E0AC
:1002200052D280EC90E060E0AFD180E061E04BD250
:100230008CEC90E060E0A8D185E561E044D285EDEA
:1002400090E060E0A1D18AEA61E03DD28EED90E0DD
:1002500060E09AD1C0E0D0E01C2FCE018F7090708A
:10026000892B21F48C2F82958F709AD1812F60E099
:100270002AD2882321F42196CF3FD10569F77BD17B
:1002800088EE90E061E080D186EF90E061E07CD183
:10029000FF242DC0CE0181709070C114D10419F0DB
:1002A000892B19F005C0892B19F080E090E002C07D
:1002B0008FEF9FEFF4D12196CC31D10559F70F5F25
:1002C0001F4F81E00038180741F0C0E0D0E038E06F
:1002D000C32ED12CC022D122DDCF81E060E086D1B7
:1002E000C1010197F1F7F394A4E0FA1619F000E0C8
:1002F00010E0EBCF88E893E1F3013197F1F7019734
:10030000D9F785E091E061E03FD1FF242DC0CE0117
:1003100081709070C114D10419F0892B19F005C0B7
:10032000892B19F08FEF9FEF02C080E090E0B7D1EA
:100330002196CC31D10559F70F5F1F4FB1E000383E
:100340001B0741F0C0E0D0E028E0C22ED12CC02233
:10035000D122DDCF81E060E049D1C1010197F1F701
:10036000F39484E0F81619F000E010E0EBCF88E891
:1003700093E1F3013197F1F70197D9F78EED90E012
:1003800061E002D110E010C0CE0189D12196AAE22D
:10039000C030DA07C9F781E060E028D1C1010197D8
:1003A000F1F71F5F143019F0C0E0D0E0EDCF88E81E
:1003B00093E1F3013197F1F70197D9F784E191E0E7
:1003C00061E0E2D0CC24DD248C2DEAD0460193E01C
:1003D000880C991C9A95E1F7BB249BC08FEF9FEF87
:1003E0005ED12196C730D105C9F7C0E0D0E08AEAD6
:1003F00095E555D12196C730D105C9F7C0E0D0E0C9
:1004000085E59AEA4CD12196C830D105C9F7F701A4
:10041000F695E795E770F070E80DF91DEE5CFE4F7C
:10042000E49160E670E0DB0140E050E000E010E0C5
:10043000F0E0CF01042E02C0959587950A94E2F76B
:1004400080FF14C0C20111960C90119702C0880F52
:10045000991F0A94E2F792010C9002C0220F331FF9
:100460000A94E2F7822B932B082B192B4F5F5F4FD7
:10047000129644305105E9F640E050E0C0E0D0E08B
:1004800080E190E0042E02C0880F991F0A94E2F7E1
:100490008E239F23892BA9F0C201DB0111960C90BA
:1004A000119702C0880F991F0A94E2F792010C90ED
:1004B00002C0220F331F0A94E2F7822B932BC82B22
:1004C000D92B4F5F5F4F6E5F7F4F44305105C1F6B0
:1004D000C801E5D0CE01E3D0C801E1D0CE01DFD024
:1004E000C801DDD0CE01DBD00894E11CF11CB0E8DE
:1004F000EB16B1E0FB0619F0C0E0D0E06FCF81E071
:1005000060E074D0C1010197F1F7B39484E0B816AC
:1005100019F0EE24FF24F0CF88E893E1F30131973E
:10052000F1F70197D9F7949A88EC90E0F3013197AD
:10053000F1F70197D9F7949888EC90E0F30131979F
:10054000F1F70197D9F70894C11CD11CA8E0CA168D
:10055000D10409F039CF929A0ED08FE191E061E099
:1005600013D009D04ECE5D9BFECF8CB908955F9B12
:10057000FECF8CB108955D9BFECF8DE08CB95D9B65
:10058000FECF8AE08CB9089503C05D9BFECF2CB9E5
:10059000FC01019624912223C1F76111ECDF08953B
:1005A0008F708A3010F0895C01C0805D5D9BFECF4A
:1005B0008CB9089520E030E0482F50E070E361E30B
:1005C000CA01022E02C0880F991F0A94E2F787FF22
:1005D00004C05D9BFECF6CB903C05D9BFECF7CB9B0
:1005E0002F5F3F4F2830310559F7089597B39F6328
:1005F00097BB91B3906C91BB98B3262F2F73907CCF
:10060000292B28BB92B3607C9F73962B92BB95B32A
:1006100021E030E002C0220F331F8A95E2F7922BCF
:1006200095BB85B32095282325BB87B3807C87BBEA
:1006300081B38F7381BB0895DC0187B3807C87BB56
:1006400081B38F7381BBAB9A25E3822F8A95F1F733
:10065000AB98822F8A95F1F7AC98822F8A95F1F7A3
:1006600096B380B3807C9F73892BFD018193AC9AF4
:100670009398822F8A95F1F796B380B3807C9F730D
:10068000892B11968C93939AAD982A95F1F796B38E
:1006900080B3807C9F73892B8183AD9A08951F93CB
:1006A000182F80E0692FA2DF82E0612F9FDF9298F0
:1006B00081E061E09BDF81E065E098DF81E061E05F
:1006C00095DF1F9108950F931F93DF93CF9300D071
:1006D0000F92CDB7DEB7182F062F82E0612F86DF8D
:1006E00080E0612F83DF81E0612F80DF929880E9D5
:1006F00091E00197F1F7CE0101969EDF929A8981F0
:10070000811771F49A81981759F48B81891741F4F4
:10071000002321F08FE790E061E036DF80E029C020
:10072000002331F184E890E061E02EDF8BE590E07A
:1007300061E02ADF89E890E060E026DF812F3ADF80
:1007400080E211DF812F36DF80E20DDF812F32DF83
:1007500012DF83E990E060E017DF89812BDF80E220
:1007600002DF8A8127DF80E2FEDE8B8123DF03DF69
:1007700081E00F900F900F90CF91DF911F910F911B
:060780000895F894FFCF7C
:08078600000E020C040A060833
:00000001FF
